{
  "abi": [
    {
      "inputs": [
        {
          "internalType": "uint256",
          "name": "_minimumStaking",
          "type": "uint256"
        }
      ],
      "stateMutability": "nonpayable",
      "type": "constructor"
    },
    {
      "inputs": [
        {
          "internalType": "uint256",
          "name": "",
          "type": "uint256"
        }
      ],
      "name": "InvalidStakeId",
      "type": "error"
    },
    {
      "inputs": [
        {
          "internalType": "uint256",
          "name": "",
          "type": "uint256"
        }
      ],
      "name": "NoStakingDetected",
      "type": "error"
    },
    {
      "inputs": [],
      "name": "NotAuthorized",
      "type": "error"
    },
    {
      "inputs": [],
      "name": "NothingToUnstake",
      "type": "error"
    },
    {
      "inputs": [
        {
          "internalType": "uint256",
          "name": "",
          "type": "uint256"
        }
      ],
      "name": "ZeroValue",
      "type": "error"
    },
    {
      "anonymous": false,
      "inputs": [
        {
          "indexed": true,
          "internalType": "address",
          "name": "previousOwner",
          "type": "address"
        },
        {
          "indexed": true,
          "internalType": "address",
          "name": "newOwner",
          "type": "address"
        }
      ],
      "name": "OwnershipTransferred",
      "type": "event"
    },
    {
      "anonymous": false,
      "inputs": [
        {
          "indexed": false,
          "internalType": "uint256",
          "name": "",
          "type": "uint256"
        }
      ],
      "name": "Staked",
      "type": "event"
    },
    {
      "anonymous": false,
      "inputs": [
        {
          "indexed": false,
          "internalType": "uint256",
          "name": "",
          "type": "uint256"
        }
      ],
      "name": "Unstaked",
      "type": "event"
    },
    {
      "inputs": [],
      "name": "getStakeProfile",
      "outputs": [
        {
          "components": [
            {
              "internalType": "uint256",
              "name": "depositTime",
              "type": "uint256"
            },
            {
              "internalType": "uint256",
              "name": "celoAmount",
              "type": "uint256"
            },
            {
              "internalType": "address",
              "name": "account",
              "type": "address"
            }
          ],
          "internalType": "struct IVault.Staker",
          "name": "stk",
          "type": "tuple"
        }
      ],
      "stateMutability": "view",
      "type": "function"
    },
    {
      "inputs": [],
      "name": "minimumStaking",
      "outputs": [
        {
          "internalType": "uint256",
          "name": "",
          "type": "uint256"
        }
      ],
      "stateMutability": "view",
      "type": "function"
    },
    {
      "inputs": [],
      "name": "owner",
      "outputs": [
        {
          "internalType": "address",
          "name": "",
          "type": "address"
        }
      ],
      "stateMutability": "view",
      "type": "function"
    },
    {
      "inputs": [],
      "name": "renounceOwnership",
      "outputs": [],
      "stateMutability": "nonpayable",
      "type": "function"
    },
    {
      "inputs": [
        {
          "internalType": "contract IERC20",
          "name": "_token",
          "type": "address"
        }
      ],
      "name": "setToken",
      "outputs": [],
      "stateMutability": "nonpayable",
      "type": "function"
    },
    {
      "inputs": [],
      "name": "stake",
      "outputs": [
        {
          "internalType": "bool",
          "name": "",
          "type": "bool"
        }
      ],
      "stateMutability": "payable",
      "type": "function"
    },
    {
      "inputs": [
        {
          "internalType": "address",
          "name": "who",
          "type": "address"
        }
      ],
      "name": "stakeOnBehalf",
      "outputs": [
        {
          "internalType": "bool",
          "name": "",
          "type": "bool"
        }
      ],
      "stateMutability": "payable",
      "type": "function"
    },
    {
      "inputs": [],
      "name": "stakers",
      "outputs": [
        {
          "internalType": "uint256",
          "name": "",
          "type": "uint256"
        }
      ],
      "stateMutability": "view",
      "type": "function"
    },
    {
      "inputs": [],
      "name": "token",
      "outputs": [
        {
          "internalType": "contract IERC20",
          "name": "",
          "type": "address"
        }
      ],
      "stateMutability": "view",
      "type": "function"
    },
    {
      "inputs": [
        {
          "internalType": "address",
          "name": "newOwner",
          "type": "address"
        }
      ],
      "name": "transferOwnership",
      "outputs": [],
      "stateMutability": "nonpayable",
      "type": "function"
    },
    {
      "inputs": [],
      "name": "unstake",
      "outputs": [
        {
          "internalType": "bool",
          "name": "",
          "type": "bool"
        }
      ],
      "stateMutability": "nonpayable",
      "type": "function"
    },
    {
      "inputs": [],
      "name": "withdraw",
      "outputs": [],
      "stateMutability": "nonpayable",
      "type": "function"
    },
    {
      "stateMutability": "payable",
      "type": "receive"
    }
  ],
  "bytecode": {
    "object": "0x608060405234801561001057600080fd5b5060405161107438038061107483398101604081905261002f916100e4565b61003833610094565b6000811161008c5760405162461bcd60e51b815260206004820152601760248201527f4d696e696d756d207374616b696e6720746f6f206c6f77000000000000000000604482015260640160405180910390fd5b6001556100fd565b600080546001600160a01b038381166001600160a01b0319831681178455604051919092169283917f8be0079c531659141344cd1fd0a4f28419497f9722a3daafe3b4186f6b6457e09190a35050565b6000602082840312156100f657600080fd5b5051919050565b610f688061010c6000396000f3fe6080604052600436106100ab5760003560e01c80638da5cb5b116100645780638da5cb5b146101a25780639cc776f5146101d4578063d479ed71146101e7578063f2fde38b1461020b578063fc0c546a1461022b578063fed1252a1461024b57600080fd5b80630f564071146100e6578063144fa6d71461012b5780632def66201461014b5780633a4b66f1146101705780633ccfd60b14610178578063715018a61461018d57600080fd5b366100e157600034116100df5760405162461bcd60e51b815260206004820152600060248201526044015b60405180910390fd5b005b600080fd5b3480156100f257600080fd5b506100fb610261565b604080518251815260208084015190820152918101516001600160a01b0316908201526060015b60405180910390f35b34801561013757600080fd5b506100df610146366004610a5e565b61029c565b34801561015757600080fd5b506101606102c6565b6040519015158152602001610122565b6101606103a6565b34801561018457600080fd5b506100df6103b2565b34801561019957600080fd5b506100df610479565b3480156101ae57600080fd5b506000546001600160a01b03165b6040516001600160a01b039091168152602001610122565b6101606101e2366004610a5e565b61048d565b3480156101f357600080fd5b506101fd60015481565b604051908152602001610122565b34801561021757600080fd5b506100df610226366004610a5e565b6104f7565b34801561023757600080fd5b506003546101bc906001600160a01b031681565b34801561025757600080fd5b506101fd60025481565b61028e6040518060600160405280600081526020016000815260200160006001600160a01b031681525090565b61029733610570565b905090565b6102a46105e1565b600380546001600160a01b0319166001600160a01b0392909216919091179055565b33600090815260046020908152604080832081516060810183528154815260018201549381018490526002909101546001600160a01b03169181019190915290820361032d57806020015160405163076ca5e760e21b81526004016100d691815260200190565b60408101516001600160a01b03166103875760405162461bcd60e51b815260206004820152601960248201527f4163636f756e7420616e6f6d616c6c792064657465637465640000000000000060448201526064016100d6565b61039e81604001518260200151836000015161063b565b600191505090565b6000610297333461074e565b60006103bd33610570565b6040908101519051633ce051f560e11b81523360048201529091506001600160a01b038216906379c0a3ea90602401600060405180830381600087803b15801561040657600080fd5b505af115801561041a573d6000803e3d6000fd5b5050604051627a79d960e91b81523360048201526001600160a01b038416925063f4f3b2009150602401600060405180830381600087803b15801561045e57600080fd5b505af1158015610472573d6000803e3d6000fd5b5050505050565b6104816105e1565b61048b60006108b7565b565b60006001600160a01b03821633036104e75760405162461bcd60e51b815260206004820152601e60248201527f706c65617365207573652064657369676e617465642066756e6374696f6e000060448201526064016100d6565b6104f1823461074e565b92915050565b6104ff6105e1565b6001600160a01b0381166105645760405162461bcd60e51b815260206004820152602660248201527f4f776e61626c653a206e6577206f776e657220697320746865207a65726f206160448201526564647265737360d01b60648201526084016100d6565b61056d816108b7565b50565b61059d6040518060600160405280600081526020016000815260200160006001600160a01b031681525090565b506001600160a01b03908116600090815260046020908152604091829020825160608101845281548152600182015492810192909252600201549092169082015290565b6000546001600160a01b0316331461048b5760405162461bcd60e51b815260206004820181905260248201527f4f776e61626c653a2063616c6c6572206973206e6f7420746865206f776e657260448201526064016100d6565b6002805490600061064b83610a91565b909155505033600090815260046020526040808220600101829055516001600160a01b0385169084908381818185875af1925050503d80600081146106ac576040519150601f19603f3d011682016040523d82523d6000602084013e6106b1565b606091505b50509050806106f65760405162461bcd60e51b8152602060048201526011602482015270151c985b9cd9995c881c995a9958dd1959607a1b60448201526064016100d6565b60006107028484610907565b90508015610714576107148582610970565b6040518481527f11725367022c3ff288940f4b5473aa61c2da6a24af7363a1128ee2401e8983b29060200160405180910390a15050505050565b600080600061075c85610570565b9050600154841015610784576040516302ee6a2560e21b8152600481018590526024016100d6565b604081015191506001600160a01b0382166107e4576003546040516001600160a01b03909116906107b490610a3c565b6001600160a01b039091168152602001604051809103906000f0801580156107e0573d6000803e3d6000fd5b5091505b60208101511561080157610801828260200151836000015161063b565b60405180606001604052806108134290565b815260208082018790526001600160a01b03858116604093840152888116600090815260048352838120855181559285015160018401559390920151600291820180546001600160a01b031916919093161790915580549161087483610aa8565b90915550506040518481527feebbaa86c348cb664e392b180fd0ff2e1998af9fa833ef69a778cb0b42d3ca279060200160405180910390a1506001949350505050565b600080546001600160a01b038381166001600160a01b0319831681178455604051919092169283917f8be0079c531659141344cd1fd0a4f28419497f9722a3daafe3b4186f6b6457e09190a35050565b6000603c428381036109245766038d7ea4c68000925050506104f1565b838111156109685760006109388286610a11565b9050801561095b576109548361094e8389610a24565b90610a30565b9350610966565b66038d7ea4c6800093505b505b505092915050565b6003546040516340c10f1960e01b81526001600160a01b03848116600483015260248201849052909116906340c10f19906044016020604051808303816000875af11580156109c3573d6000803e3d6000fd5b505050506040513d601f19601f820116820180604052508101906109e79190610ac1565b610a0d5760405162461bcd60e51b815260206004820152600060248201526044016100d6565b5050565b6000610a1d8284610ae3565b9392505050565b6000610a1d8284610af6565b6000610a1d8284610b0d565b61040380610b3083390190565b6001600160a01b038116811461056d57600080fd5b600060208284031215610a7057600080fd5b8135610a1d81610a49565b634e487b7160e01b600052601160045260246000fd5b600081610aa057610aa0610a7b565b506000190190565b600060018201610aba57610aba610a7b565b5060010190565b600060208284031215610ad357600080fd5b81518015158114610a1d57600080fd5b818103818111156104f1576104f1610a7b565b80820281158282048414176104f1576104f1610a7b565b600082610b2a57634e487b7160e01b600052601260045260246000fd5b50049056fe608060405260405161040338038061040383398101604081905261002291610055565b60008054336001600160a01b031991821617909155600180549091166001600160a01b0392909216919091179055610085565b60006020828403121561006757600080fd5b81516001600160a01b038116811461007e57600080fd5b9392505050565b61036f806100946000396000f3fe60806040526004361061002d5760003560e01c806379c0a3ea1461006c578063f4f3b2001461008e57600080fd5b36610067576040513481527ffd51b9a62feedc9cf075eaada5ee2e87aaaa00219195f21375592867215b3c5e9060200160405180910390a1005b600080fd5b34801561007857600080fd5b5061008c6100873660046102ce565b6100ae565b005b34801561009a57600080fd5b5061008c6100a93660046102ce565b61017c565b6000546001600160a01b031633146100e057604051630b104a5b60e01b81523360048201526024015b60405180910390fd5b60405147906000906001600160a01b0384169083908381818185875af1925050503d806000811461012d576040519150601f19603f3d011682016040523d82523d6000602084013e610132565b606091505b50509050806101775760405162461bcd60e51b81526020600482015260116024820152701dda5d1a191c985dd85b0819985a5b1959607a1b60448201526064016100d7565b505050565b6000546001600160a01b031633146101a957604051630b104a5b60e01b81523360048201526024016100d7565b6001546040516370a0823160e01b81523060048201526000916001600160a01b0316906370a0823190602401602060405180830381865afa1580156101f2573d6000803e3d6000fd5b505050506040513d601f19601f8201168201806040525081019061021691906102fe565b905080156102ca5760015460405163a9059cbb60e01b81526001600160a01b038481166004830152602482018490529091169063a9059cbb906044016020604051808303816000875af1158015610271573d6000803e3d6000fd5b505050506040513d601f19601f820116820180604052508101906102959190610317565b6102ca5760405162461bcd60e51b815260206004820152600660248201526511985a5b195960d21b60448201526064016100d7565b5050565b6000602082840312156102e057600080fd5b81356001600160a01b03811681146102f757600080fd5b9392505050565b60006020828403121561031057600080fd5b5051919050565b60006020828403121561032957600080fd5b815180151581146102f757600080fdfea2646970667358221220c4089dd28be540253ea3c26dc83ea592ddf3b35c778335d012020261a322b16e64736f6c63430008110033a26469706673582212202136ea329c6f56550871a43f3b0f78c3710955bbec3dacce2d618dd804b3a63164736f6c63430008110033",
    "linkReferences": {}
  },
  "methodIdentifiers": {
    "getStakeProfile()": "0f564071",
    "minimumStaking()": "d479ed71",
    "owner()": "8da5cb5b",
    "renounceOwnership()": "715018a6",
    "setToken(address)": "144fa6d7",
    "stake()": "3a4b66f1",
    "stakeOnBehalf(address)": "9cc776f5",
    "stakers()": "fed1252a",
    "token()": "fc0c546a",
    "transferOwnership(address)": "f2fde38b",
    "unstake()": "2def6620",
    "withdraw()": "3ccfd60b"
  },
  "id": 18
}